{
  "_format": "hh-sol-artifact-1",
  "contractName": "TrendPrediction",
  "sourceName": "contracts/TrendPrediction.sol",
  "abi": [
    {
      "anonymous": false,
      "inputs": [
        {
          "indexed": true,
          "internalType": "uint256",
          "name": "id",
          "type": "uint256"
        },
        {
          "indexed": false,
          "internalType": "string",
          "name": "platform",
          "type": "string"
        },
        {
          "indexed": false,
          "internalType": "string",
          "name": "trendData",
          "type": "string"
        },
        {
          "indexed": false,
          "internalType": "uint256",
          "name": "timestamp",
          "type": "uint256"
        }
      ],
      "name": "TrendStored",
      "type": "event"
    },
    {
      "inputs": [
        {
          "internalType": "uint256",
          "name": "_id",
          "type": "uint256"
        }
      ],
      "name": "getTrend",
      "outputs": [
        {
          "internalType": "string",
          "name": "",
          "type": "string"
        },
        {
          "internalType": "string",
          "name": "",
          "type": "string"
        },
        {
          "internalType": "uint256",
          "name": "",
          "type": "uint256"
        }
      ],
      "stateMutability": "view",
      "type": "function"
    },
    {
      "inputs": [
        {
          "internalType": "string",
          "name": "_platform",
          "type": "string"
        },
        {
          "internalType": "string",
          "name": "_trendData",
          "type": "string"
        }
      ],
      "name": "storeTrend",
      "outputs": [],
      "stateMutability": "nonpayable",
      "type": "function"
    },
    {
      "inputs": [],
      "name": "trendCount",
      "outputs": [
        {
          "internalType": "uint256",
          "name": "",
          "type": "uint256"
        }
      ],
      "stateMutability": "view",
      "type": "function"
    },
    {
      "inputs": [
        {
          "internalType": "uint256",
          "name": "",
          "type": "uint256"
        }
      ],
      "name": "trends",
      "outputs": [
        {
          "internalType": "string",
          "name": "platform",
          "type": "string"
        },
        {
          "internalType": "string",
          "name": "trendData",
          "type": "string"
        },
        {
          "internalType": "uint256",
          "name": "timestamp",
          "type": "uint256"
        }
      ],
      "stateMutability": "view",
      "type": "function"
    }
  ],
  "bytecode": "0x608060405234801561001057600080fd5b50610b9d806100206000396000f3fe608060405234801561001057600080fd5b506004361061004c5760003560e01c80632d07f71e146100515780635273292714610083578063ec5ec59b1461009f578063fda7fa26146100d1575b600080fd5b61006b600480360381019061006691906104cd565b6100ef565b60405161007a93929190610599565b60405180910390f35b61009d60048036038101906100989190610713565b610281565b005b6100b960048036038101906100b491906104cd565b610343565b6040516100c893929190610599565b60405180910390f35b6100d961047d565b6040516100e6919061078b565b60405180910390f35b60608060006001548410610138576040517f08c379a000000000000000000000000000000000000000000000000000000000815260040161012f906107f2565b60405180910390fd5b600080600086815260200190815260200160002090508060000181600101826002015482805461016790610841565b80601f016020809104026020016040519081016040528092919081815260200182805461019390610841565b80156101e05780601f106101b5576101008083540402835291602001916101e0565b820191906000526020600020905b8154815290600101906020018083116101c357829003601f168201915b505050505092508180546101f390610841565b80601f016020809104026020016040519081016040528092919081815260200182805461021f90610841565b801561026c5780601f106102415761010080835404028352916020019161026c565b820191906000526020600020905b81548152906001019060200180831161024f57829003601f168201915b50505050509150935093509350509193909250565b604051806060016040528083815260200182815260200142815250600080600154815260200190815260200160002060008201518160000190816102c59190610a1e565b5060208201518160010190816102db9190610a1e565b50604082015181600201559050506001547f857093423e08e74dd086a0a3965764f0d9ee4cb8bf2e97d3b88a997c82ef2a3a83834260405161031f93929190610599565b60405180910390a26001600081548092919061033a90610b1f565b91905055505050565b600060205280600052604060002060009150905080600001805461036690610841565b80601f016020809104026020016040519081016040528092919081815260200182805461039290610841565b80156103df5780601f106103b4576101008083540402835291602001916103df565b820191906000526020600020905b8154815290600101906020018083116103c257829003601f168201915b5050505050908060010180546103f490610841565b80601f016020809104026020016040519081016040528092919081815260200182805461042090610841565b801561046d5780601f106104425761010080835404028352916020019161046d565b820191906000526020600020905b81548152906001019060200180831161045057829003601f168201915b5050505050908060020154905083565b60015481565b6000604051905090565b600080fd5b600080fd5b6000819050919050565b6104aa81610497565b81146104b557600080fd5b50565b6000813590506104c7816104a1565b92915050565b6000602082840312156104e3576104e261048d565b5b60006104f1848285016104b8565b91505092915050565b600081519050919050565b600082825260208201905092915050565b60005b83811015610534578082015181840152602081019050610519565b60008484015250505050565b6000601f19601f8301169050919050565b600061055c826104fa565b6105668185610505565b9350610576818560208601610516565b61057f81610540565b840191505092915050565b61059381610497565b82525050565b600060608201905081810360008301526105b38186610551565b905081810360208301526105c78185610551565b90506105d6604083018461058a565b949350505050565b600080fd5b600080fd5b7f4e487b7100000000000000000000000000000000000000000000000000000000600052604160045260246000fd5b61062082610540565b810181811067ffffffffffffffff8211171561063f5761063e6105e8565b5b80604052505050565b6000610652610483565b905061065e8282610617565b919050565b600067ffffffffffffffff82111561067e5761067d6105e8565b5b61068782610540565b9050602081019050919050565b82818337600083830152505050565b60006106b66106b184610663565b610648565b9050828152602081018484840111156106d2576106d16105e3565b5b6106dd848285610694565b509392505050565b600082601f8301126106fa576106f96105de565b5b813561070a8482602086016106a3565b91505092915050565b6000806040838503121561072a5761072961048d565b5b600083013567ffffffffffffffff81111561074857610747610492565b5b610754858286016106e5565b925050602083013567ffffffffffffffff81111561077557610774610492565b5b610781858286016106e5565b9150509250929050565b60006020820190506107a0600083018461058a565b92915050565b7f496e76616c6964205472656e6420494400000000000000000000000000000000600082015250565b60006107dc601083610505565b91506107e7826107a6565b602082019050919050565b6000602082019050818103600083015261080b816107cf565b9050919050565b7f4e487b7100000000000000000000000000000000000000000000000000000000600052602260045260246000fd5b6000600282049050600182168061085957607f821691505b60208210810361086c5761086b610812565b5b50919050565b60008190508160005260206000209050919050565b60006020601f8301049050919050565b600082821b905092915050565b6000600883026108d47fffffffffffffffffffffffffffffffffffffffffffffffffffffffffffffffff82610897565b6108de8683610897565b95508019841693508086168417925050509392505050565b6000819050919050565b600061091b61091661091184610497565b6108f6565b610497565b9050919050565b6000819050919050565b61093583610900565b61094961094182610922565b8484546108a4565b825550505050565b600090565b61095e610951565b61096981848461092c565b505050565b5b8181101561098d57610982600082610956565b60018101905061096f565b5050565b601f8211156109d2576109a381610872565b6109ac84610887565b810160208510156109bb578190505b6109cf6109c785610887565b83018261096e565b50505b505050565b600082821c905092915050565b60006109f5600019846008026109d7565b1980831691505092915050565b6000610a0e83836109e4565b9150826002028217905092915050565b610a27826104fa565b67ffffffffffffffff811115610a4057610a3f6105e8565b5b610a4a8254610841565b610a55828285610991565b600060209050601f831160018114610a885760008415610a76578287015190505b610a808582610a02565b865550610ae8565b601f198416610a9686610872565b60005b82811015610abe57848901518255600182019150602085019450602081019050610a99565b86831015610adb5784890151610ad7601f8916826109e4565b8355505b6001600288020188555050505b505050505050565b7f4e487b7100000000000000000000000000000000000000000000000000000000600052601160045260246000fd5b6000610b2a82610497565b91507fffffffffffffffffffffffffffffffffffffffffffffffffffffffffffffffff8203610b5c57610b5b610af0565b5b60018201905091905056fea2646970667358221220ddcfb4d676a9177323b08a791e8058cfa33a4de51cc313ef962a9af0aa2b366664736f6c63430008140033",
  "linkReferences": {},
  "deployedLinkReferences": {}
}